:100000000C9466000C9400000C9400000C9400000A
:100010000C9400000C9400000C9400000C94000060
:100020000C9400000C9400000C9400000C94000050
:100030000C9400000C9400000C9400000C94C6007A
:100040000C9400000C9400000C9498000C94000098
:100050000C94B5000C9400000C9400000C9400006B
:100060000C9400000C9400000C9400000C94000010
:100070000C9400000C9400000C9400000C94000000
:100080000C9400000C9400000C9400001027E8036E
:1000900064000A00010000100001100001000000CF
:1000A00023474A474B53484E4A48484A4D4F5048C9
:1000B0004F4C4D53540D01002D4E414E0000010098
:1000C00002009E0001001005B6000000F894EE2723
:1000D000ECBBF1E0F5BFE5BFE0936C00F8E1F1BDEA
:1000E000E1BD8DE0A2E0BB27ED938A95E9F780E0C2
:1000F00090E1A0E0B1E0ED930197E9F7EEEBF0E0DD
:1001000085919591009761F0A591B5910590159015
:10011000BF01F00105900D920197E1F7FB01F0CFCF
:10012000EFEFEDBFE0E1EEBFC0E0D5E00C94E603F9
:100130000E9416061A930A931BB10CB1E12FEC71C1
:1001400089F4E52DF0E0E050FB4F00835394E8E0A4
:10015000E51509F455247394E8E0E71519F47724BC
:10016000689420F80991199119C00E9416068820F8
:1001700061F08A94E92DF0E0E85FFA4FE081ECB994
:100180009394E8E0E91509F4992408C00E94160642
:10019000EAB5FBB5E650FF4FFBBDEABDE991EFBF05
:1001A000F991E9911895E881F0E0E734A0E0FA07C9
:1001B00011F4E0E059C0E834A0E0FA0711F4E1E0FE
:1001C00053C0E934A0E0FA0711F4E2E04DC0EA348C
:1001D000A0E0FA0711F4E3E047C0EB34A0E0FA072F
:1001E00011F4E4E041C0EC34A0E0FA0711F4E5E0DA
:1001F0003BC0ED34A0E0FA0711F4E6E035C0EE3480
:10020000A0E0FA0711F4E7E02FC0EF34A0E0FA070E
:1002100011F4E8E029C0E035A0E0FA0711F4E9E0C4
:1002200023C0E135A0E0FA0711F4EAE01DC0E23591
:10023000A0E0FA0711F4EBE017C0E335A0E0FA07FD
:1002400011F4ECE011C0E435A0E0FA0711F4EDE0A0
:100250000BC0E535A0E0FA0711F4EEE005C0E63585
:10026000A0E0FA0709F4EFE0219608951A930A93A3
:1002700000E0EA81E03009F10E941B06AC91A33254
:10028000B9F4AA81AF3210F0E1E054C010E0EA8185
:100290001E1768F40E9422060F010E941B06EE271B
:1002A000A10FBE1FEC91D001EC931F5FF0CF05C0F2
:1002B0000F5FEA81E150EA83DCCF10E0E2E0E10287
:1002C000F001DF01EA81F0E03297AE17BF078CF54D
:1002D0000E942906A181AD3019F0A281AD3009F448
:1002E00028C00E942206FF93EF930E942906E18115
:1002F000EA9359DFAF91BF91EC93E12FF0E0AB812E
:10030000BC81AE0FBF1FEC91E295E07FEC930E94A1
:100310002206FF93EF93E081EF930E942906E2818A
:10032000EA9341DFAF91EA0FAF91BF91EC931F5F6A
:10033000C5CFE0E0198108812596089524970E9491
:100340009509E0E0EC83ED83EE83EF83A885A1308F
:1003500050F00E94310631970E943906FF27662728
:1003600077270E943D06A885A23058F00E943106EA
:1003700032970E9439060E9448060E944C060E944D
:100380003D06A885A33058F00E94310633970E949D
:1003900039060E9448060E9453060E943D06A88521
:1003A000A430E0F00E9431063497E081E07F1E2FF8
:1003B0000E9431063497DF01EC91EF70EC930E94BC
:1003C000310634970E9439060E944806A0E4B2E440
:1003D0008FE090E00E943F090E943D06FE013496A6
:1003E0009F01A885A13040F00E94310631970F018E
:1003F000D901EC91D001EC93A885A23038F00E948D
:1004000031063297DF01F901E181EC93A885A33031
:1004100038F00E9431063397DF01F901E281EC9355
:10042000A885A43038F00E9431063497DF01F90125
:10043000E381EC93E12F0E949C092B960895249769
:100440001A930A93AE81A33050F00E945A06349753
:10045000FF93EF930E943906AF91BF91EC93E0E0D8
:10046000EA83EB83EC83ED83AE81A43050F00E94ED
:100470005A0635970E943906FF27662777270E947C
:100480006206AE81A53058F00E945A0636970E9447
:1004900039060E9448060E944C060E946206AE8100
:1004A000A63058F00E945A0637970E9439060E94DB
:1004B00048060E9453060E946206FE0132968F0192
:1004C0000E946D06349744F00E945A0635970F013A
:1004D000D801EC91D001EC930E946D0635973CF069
:1004E0000E945A063697DF01F801E181EC930E94E1
:1004F0006D0636973CF00E945A063797DF01F801E7
:10050000E281EC93198108812996089528970E9429
:100510009309AE85BF851196EC91EF705E2FEE8545
:10052000FF85FA93EA935A9309DF4E2F47FDB1C036
:10053000E42FE07771F530E020E0351710F4223039
:1005400008F025C00E9471060E9478060E9471067C
:10055000EA0FFB1FBF010E947F06DB01F0E0ED9375
:10056000FC933F5F351780F40E947106EA0FFB1F72
:10057000CF01608171810E947F06FE2FE0E0E60FCF
:10058000F71FDC01ED93FC933F5F2F5FD6CFE0E0D8
:100590008AC0E0E0EA87EB87EC87ED870E9493064C
:1005A0003497E081FF27662777270E94DE070E94A5
:1005B0009B060E94A0060E94A5063397E0810E9438
:1005C000AD0630E020E0E52FF0E03297A32FB0E059
:1005D000AE17BF0714F4223008F00FC00E94A00627
:1005E0000E94A5063297DF01EE27A20FBE1FEC91F5
:1005F0000E94AD063F5F2F5FE6CFE0E0F0E060E2F3
:1006000071E40E947209E42FE077FF2766277727BD
:100610000E94DE07DF01CB01E0E0F0E060E871E47A
:100620000E94B6080E9472070E9472090E94CB05C0
:100630000E94A0060E9468080E949B06AE85BF85A6
:100640001296AC91A13C31F4AE85BF851396AC9166
:10065000A33709F00BC00E94B6060E94A5070E94AE
:10066000BB06FE0136960E94C0061DC0AE85BF8542
:100670001296AC91AF3831F4AE85BF851396AC912C
:10068000A23C09F005C0FE013A960E94C0060BC0CC
:100690000AC020E0223030F40E9471060E947806E1
:1006A0002F5FF8CFE2E00E949A096296089524979E
:1006B0000E949509A885B9851196EC91EF703E2F9F
:1006C000E32FF0E0A885B985EA0FFB1F3496319738
:1006D000E081EF7011F00C94AC03E885F985FA9392
:1006E000EA933A93ACDEE0E0EC83ED83EE83EF83B4
:1006F000A885B98514960E94D30615960E94D30644
:1007000016960E94EF060E94FE06ACE3B0E080E081
:1007100090E00E943F09EC83FD836E837F83A88570
:10072000B98517960E94EF06FE0134968F01D80115
:100730000E945F09AA85BB85ED93FC93D8011296B0
:100740000E945F09AA85BB851296ED93FC93E0E0B9
:100750000E949C090C941406E7E00E949C090C94EA
:100760001406A881B9811496EC91E07FE03F19F45A
:10077000E5E00C94A8040E940307A13C21F40E9428
:100780000807A33749F00E940307AF3821F40E94FD
:100790000807A23C09F007C00E940D070E940D0740
:1007A000B5DE0C94A8040E940307A63E21F40E9423
:1007B0000807AC3909F007C00E940D070E940D0719
:1007C00076DF0C94A804E6E00C94A8046A9786E10E
:1007D000A0E0B0E0E0EAF0E00E94A10916E1E0E06C
:1007E000EBBBEABBE8BBE7BBE5BBE4BBE2BBE1BB01
:1007F000E3B9E2B9E0936200E0936100E093650041
:10080000E0936400E0BFE4E0E3BFE0E0E2BFEAEFD2
:10081000E1BFE0E0EFBDEEBDEDBDECBDE7BDE6BD87
:10082000EBBDEABDE9BDE8BDE0937900E093780057
:10083000E5BDE4BDE3BDE0938B00E0938A00E09367
:100840008900E0938800E0938100E0938000E093CA
:100850008700E0938600E0938500E0938400E093B6
:100860008300E0938200E0936A00EABFE9BFE2E020
:10087000E7BFE0E0E0937D00EBB9E8EDEAB9EEE038
:10088000E0939500E0E0E0939000E7E6E9B9E0E866
:10089000E8B9E0E0E0BD7894FE01FA93EA931A9398
:1008A000E5DCFE017696FA93EA93FE013296FA931E
:1008B000EA9357DFFFCFFFCFE881E295EF70AE2FCD
:1008C000AA0FAA0FEA0FEE0FA991AF70EA0F0895D1
:1008D0007B816A81F981E88177FB770F67FD716021
:1008E000972F9E5781F078F0983190F4AA27BB2774
:1008F000882708948795B795A7959A95D1F7EA2305
:10090000FB23682305C0E8947727EE27FF27662797
:100910006F77769508F4606877F9A991B991899114
:100920009991EA17FB076807790797FB08950E94DA
:1009300012070E9472090E9468040E946D0919F44E
:100940000E94120705C0E6F70E9412070E941507D1
:100950002496089524971A930A930E941C070E94D4
:1009600088092CF0EFEFFFEF6FE77FEF77C00E9471
:1009700021070E947209EDB7FEB73197FA93EA9307
:100980001F930F930E9451070F911F910E94BB0666
:100990000E941C07E3EFF4E065E37FE30E94FB089D
:1009A00040F40E9426070E9418080E94BB060150CE
:1009B00010400E9421070E9415077F936F93FF93B9
:1009C000EF930E942107A0E0B0E080E89FE30E943F
:1009D0001808AF91BF918F919F910E94B6080E9415
:1009E000BB060E9426070E942807A6E2B2E485E61D
:1009F0009FE30E946808DF01CB01EEE4F1E164E5CA
:100A000070E40E942F070E941C070E9468087F93D1
:100A10006F93FF93EF930E943407ADE4B1E184ED4F
:100A20009FE30E941108AF91BF918F919F910E9407
:100A3000B6087F936F93FF93EF93F8010E943A09F2
:100A40000E94DE07A8E1B2E781E39FE30E94680805
:100A5000AF91BF918F919F910E94180819810881D1
:100A60002A96089528971A930A930E94A006E0E513
:100A7000FCEA6EEA72EC0E94FB0818F40E94390747
:100A800086C00E94B6060E94840929F4E0E0F0E0E6
:100A900060E87FE37CC00E94A006E8E1F2E761EB3A
:100AA00072E40E94FB0809F010F40C945C05EFEF6F
:100AB000FFEF6FE77FE76BC00E94A006EBE3FAEA67
:100AC00068EB7FE30E9468080E949B060E94B606BE
:100AD0000E9472092CDF0E94A7078F01F8010E9473
:100AE000A0060E943A090E94DE070E942F07DF013C
:100AF000CB01E0E0F0E060E07FE30E942F070E947E
:100B0000BB060E9426070E942807ADE6BCE48CE6DF
:100B10009DE30E946808A6EAB3EE86EE90E40E9488
:100B200018080E941C070E9468080E94BB060E94C9
:100B30003407A8E2BDE886EA91E40E941808EA8337
:100B4000FB836C837D830E942107AA81BB818C81FA
:100B50009D810E941808A3EFB4E085EB9FE30E94FB
:100B600068087F936F93FF93EF930E941C070E9486
:100B700034070E941108AF91BF918F919F910E94FD
:100B8000B6080E9472091A930A930E946407198199
:100B900008812E96089524970E943E070E9484099A
:100BA00019F40E94390740C0A885B9858A859B85BC
:100BB0000E9488097CF40E94FE060E94840929F4A0
:100BC000E0E0F0E060E87FE32FC00E943E070E9473
:100BD00043072AC00E94FE06DE010E94A7070E946A
:100BE00063090E9412070E94DE07DF01CB010E9409
:100BF000FE060E948E0919F00E94390715C00E9456
:100C00003E070E9472070E944307E887F9876A87B8
:100C10007B870E941207E17019F40E943E0704C00E
:100C20000E943E070E9472072C960895EA93FA9359
:100C3000EFB7EA930895E02FF0E0AB81BC81AE0FEF
:100C4000BF1F0895E12FF0E0AB81BC81EA0FFB1FCD
:100C50000895E2E0E102F001AB81BC81EA0FFB1FE5
:100C60000895E885F0E0A985BA85EA0FFB1F349660
:100C70000895E081EA930C945C04AC81BD818E817F
:100C80009F810E941B09EC83FD836E837F830895FF
:100C9000F0E00E943A090895A4E6B0E080E090E018
:100CA0000E943F090895A0E1B7E280E090E00E9431
:100CB0003F090895EE81F0E0AF81B885EA0FFB1F90
:100CC00034960895AA81BB818C819D810E941B0965
:100CD000EA83FB836C837D830895EE81F0E0319796
:100CE0000895E22FF0E0A889B989EE0FFF1F08955B
:100CF000AE0FBF1FE0E0F0E0ED93FC930895E52F09
:100D0000F0E03496DF01E32FF0E0AE1BBF0BE1E033
:100D1000F0E00E947D09EA1BFB0BAE85BF85AE0F9C
:100D2000BF1FEC910895E52FF0E0AE85BF85EA0F77
:100D3000FB1F34960895EA87FB876C877D870895AB
:100D4000AA85BB858C859D850895E0E0F0E060E88C
:100D500073E40E946808EFDFE6CFF0E0F1DF0E9465
:100D60003A090E94DE070E941808E5CFEA85FB8554
:100D70006C857D850895EE83FF8368877987089564
:100D80008F01D8010E945F09A889B989ED93FC936E
:100D9000D80112960E945F09A889B9891296ED932D
:100DA000FC93E0E00895EC91F0E0AC81BD818E8190
:100DB0009F810E943A090E941B09EC83FD836E8388
:100DC0007F83AC81BD818E819F81E8E00E942809EC
:100DD000EC83FD836E837F83A885B9850895EC91AC
:100DE000F0E0AC81BD818E819F810E943A090E9412
:100DF0001B09EC83FD836E837F830895EC81FD8165
:100E00006E817F810895A881B9811296AC91089571
:100E1000A881B9811396AC910895EA81FB81FA9378
:100E2000EA9308950E9468090895A0E0B0E080E880
:100E30009FE30E9411080895AE81BF81888599853E
:100E40000895EE81FF81688579850895FADFF4CFF2
:100E50000E946808EA83FB836C837D8308950E9467
:100E600077090E9411080895EA81FB816C817D81D8
:100E70000895E0E0F0E060E070E00895E885F9852D
:100E80006A857B8508950E9472090E94AA04AC813C
:100E9000BD818E819F810E9468080E9472090C9416
:100EA0003205A991B991E991F9916991799177FB0D
:100EB000660F771F88277E57880B7D938C937EE77C
:100EC000769567957EF00895A991B991E991F99188
:100ED0006991799177FB660F771F7A0F7695679501
:100EE0000EF0089530976040704009F070580895F2
:100EF000552342F4503811F4E0FF04C03196691FC5
:100F0000791F6BF050E8572711F45F93CFC05F3F14
:100F100031F0660F000C57956795752F08955F9314
:100F200000200AF0CFC0C8C050E8192E1522880F43
:100F3000991F9527550F879550E8072E0522660FB4
:100F4000771F7527550F67950895689401C0E89439
:100F50005F93F2DF703818F07F3F08F4A7C056E1C6
:100F6000571BAAF4519558300EF4593030F0EFEF7A
:100F7000FFEF6FEF7FE777F91AC077275523B9F0B6
:100F8000EE0FFF1F661F771F5A95D1F710C0772706
:100F9000583028F0EF2FF62F672F5850F9CF5523F0
:100FA00031F076956795F795E7955A95D1F700203A
:100FB0000AF446D15F910895689401C0E89430978F
:100FC00060407040B1F0002426F0772312F40094C2
:100FD00037D1172E7EE1112032F07A95EE0FFF1FE8
:100FE000661F111CF9CFEF2FF62F612D5F938ADF5B
:100FF0005F9108954F93AF01FD01DA01AB01BC0190
:10100000CA01402D012C142E4F910895EA0FFB1FA9
:10101000681F0895E095F0956095EF5FFF4F6F4F63
:1010200008955F9381DF903871F150E8152604C070
:101030005F937ADF903839F1703821F1572F591BBF
:101040002BF112F4D7DFFACF583118F0AA27BB27BB
:101050008827583028F0AB2FB82F88275850F9CF61
:10106000552329F08695B795A7955A95D9F7502D10
:10107000512572F0CBDF38F46795F795E7957395B6
:1010800013F420C0B7DF3EDF5F910895D8F7FBCFA0
:10109000EA1BFB0B680B51F010F40094BBDF6623D6
:1010A00092F3EE0FFF1F661F7A95CBF7EE27FF270F
:1010B000662777275F910895EFEFFFEF6FE77FEFE8
:1010C0005F910895EFEFFFEF6FE77FE75F9108957E
:1010D0005F932ADF703851F3903841F3012408946C
:1010E000791F23F41CF300203AF3ECCF0F921F93E7
:1010F0002F933F934F93112722279927689FA00191
:101100008F9F302D410D591F6B9F300D411D591F71
:101110008E9F27D0BF9F25D06A9F23D0BE9F1DD012
:10112000AF9F1BD0AE9F110D291F391F491F591F9B
:10113000E32FF42F652F522F4F913F912F911F9145
:101140000F9066232AF0550FEE1FFF1F661F02C087
:1011500073954BF2CDDE5F910895100D211D391F5F
:1011600002C0200D311D491F591F08955F93DCDE19
:10117000703821F411200AF49FCFA4CF903809F4DD
:1011800095CF01240894970B1BF4D4F30020F3CFE0
:10119000792F1F932F933F934F93112411272227C9
:1011A00033274427552790E2AE17BF07860741072C
:1011B00030F0AE1BBF0B860B410B089401C0889426
:1011C000551F221F331F111CAA1FBB1F881F441F3E
:1011D0009A9551F7F901612D4F913F912F911F91F0
:1011E000662332F0550FEE1FFF1F661F7A9543F2FC
:1011F0007FDE5F91089599239AF0772342F0971745
:1012000048F029F4AE17BF07860720F031F0989414
:10121000889408959894089408951894889408954B
:101220007723C2F7971798F3A9F7EA17FB07680720
:1012300088F399F3ECCFEA0FFB1F681F791F08951D
:10124000F09560957095E195FF4F6F4F7F4F089532
:10125000EE230E2EFD01BC0131F0EE0FFF1F661FC5
:10126000771F0A94D1F70895FE2FFF0FFF0B6F2F02
:101270007F2F08956F2F660F660B762F08957A9F44
:10128000702D6B9F700DF89F700DE99F700D6A9F18
:10129000602D710DFB9F600D711DE89F600D711D2C
:1012A0008827FA9FF02D610D781FEB9FF00D611DCF
:1012B000781FEA9FE02DF10D681F781F0895ED91CA
:1012C000FC9111970895ED93FD936D937C93089590
:1012D000E881F9816A817B810895E883F9836A83D3
:1012E0007B8308957A936A93FA93EA930895182E6C
:1012F000862F612D192E972F712D1B2EBF2FF12DAB
:101300001A2EAE2FE12D0895309760407040089559
:1013100000240A160B06080609060895EA17FB07BB
:101320006807790708955A934A933A932A931A9330
:101330000A9308955D814C813B812A81198108813E
:101340000895AC0FBD1F05900D928A95E1F70895A1
:00000001FF
